{
  "_format": "hh-sol-artifact-1",
  "contractName": "BlockchainAssignment",
  "sourceName": "contracts/BlockchainAssignment.sol",
  "abi": [
    {
      "inputs": [],
      "stateMutability": "nonpayable",
      "type": "constructor"
    },
    {
      "anonymous": false,
      "inputs": [
        {
          "indexed": false,
          "internalType": "uint256",
          "name": "productId",
          "type": "uint256"
        },
        {
          "indexed": false,
          "internalType": "bytes32",
          "name": "currentLocation",
          "type": "bytes32"
        }
      ],
      "name": "CurrLocUpdated",
      "type": "event"
    },
    {
      "anonymous": false,
      "inputs": [
        {
          "indexed": false,
          "internalType": "string",
          "name": "entityName",
          "type": "string"
        },
        {
          "indexed": true,
          "internalType": "address",
          "name": "account",
          "type": "address"
        },
        {
          "indexed": false,
          "internalType": "bytes32",
          "name": "entityType",
          "type": "bytes32"
        }
      ],
      "name": "EntityAdded",
      "type": "event"
    },
    {
      "anonymous": false,
      "inputs": [
        {
          "indexed": true,
          "internalType": "address",
          "name": "account",
          "type": "address"
        }
      ],
      "name": "EntityRemoved",
      "type": "event"
    },
    {
      "anonymous": false,
      "inputs": [
        {
          "indexed": false,
          "internalType": "string",
          "name": "productName",
          "type": "string"
        },
        {
          "indexed": false,
          "internalType": "bytes32",
          "name": "currentLocation",
          "type": "bytes32"
        },
        {
          "indexed": false,
          "internalType": "uint256",
          "name": "quality",
          "type": "uint256"
        }
      ],
      "name": "ProductAdded",
      "type": "event"
    },
    {
      "anonymous": false,
      "inputs": [
        {
          "indexed": false,
          "internalType": "uint256",
          "name": "_index",
          "type": "uint256"
        }
      ],
      "name": "ProductRemoved",
      "type": "event"
    },
    {
      "anonymous": false,
      "inputs": [
        {
          "indexed": false,
          "internalType": "uint256",
          "name": "productId",
          "type": "uint256"
        },
        {
          "indexed": false,
          "internalType": "string",
          "name": "productName",
          "type": "string"
        },
        {
          "indexed": false,
          "internalType": "bytes32",
          "name": "currentLocation",
          "type": "bytes32"
        },
        {
          "indexed": false,
          "internalType": "uint256",
          "name": "quantity",
          "type": "uint256"
        }
      ],
      "name": "ProductUpdated",
      "type": "event"
    },
    {
      "anonymous": false,
      "inputs": [
        {
          "indexed": false,
          "internalType": "uint256",
          "name": "transferId",
          "type": "uint256"
        },
        {
          "indexed": false,
          "internalType": "uint256",
          "name": "productId",
          "type": "uint256"
        },
        {
          "indexed": false,
          "internalType": "bytes32",
          "name": "origin",
          "type": "bytes32"
        },
        {
          "indexed": false,
          "internalType": "bytes32",
          "name": "destination",
          "type": "bytes32"
        },
        {
          "indexed": false,
          "internalType": "uint256",
          "name": "dateOfDeparture",
          "type": "uint256"
        },
        {
          "indexed": false,
          "internalType": "uint256",
          "name": "expectedArrivalDate",
          "type": "uint256"
        },
        {
          "indexed": false,
          "internalType": "enum ShippingStatus",
          "name": "shippingStatus",
          "type": "uint8"
        }
      ],
      "name": "ShipmentAdded",
      "type": "event"
    },
    {
      "anonymous": false,
      "inputs": [
        {
          "indexed": false,
          "internalType": "uint256",
          "name": "transferId",
          "type": "uint256"
        },
        {
          "indexed": false,
          "internalType": "uint256",
          "name": "productId",
          "type": "uint256"
        },
        {
          "indexed": false,
          "internalType": "bytes32",
          "name": "origin",
          "type": "bytes32"
        },
        {
          "indexed": false,
          "internalType": "bytes32",
          "name": "destination",
          "type": "bytes32"
        },
        {
          "indexed": false,
          "internalType": "uint256",
          "name": "dateOfDeparture",
          "type": "uint256"
        },
        {
          "indexed": false,
          "internalType": "uint256",
          "name": "expectedArrivalDate",
          "type": "uint256"
        },
        {
          "indexed": false,
          "internalType": "enum ShippingStatus",
          "name": "shippingStatus",
          "type": "uint8"
        }
      ],
      "name": "ShipmentUpdated",
      "type": "event"
    },
    {
      "anonymous": false,
      "inputs": [
        {
          "indexed": true,
          "internalType": "address",
          "name": "account",
          "type": "address"
        },
        {
          "indexed": false,
          "internalType": "bytes32",
          "name": "role",
          "type": "bytes32"
        }
      ],
      "name": "UserAdded",
      "type": "event"
    },
    {
      "anonymous": false,
      "inputs": [
        {
          "indexed": true,
          "internalType": "address",
          "name": "account",
          "type": "address"
        }
      ],
      "name": "UserRemoved",
      "type": "event"
    },
    {
      "inputs": [
        {
          "internalType": "string",
          "name": "entityName",
          "type": "string"
        },
        {
          "internalType": "address",
          "name": "_account",
          "type": "address"
        },
        {
          "internalType": "bytes32",
          "name": "_entityType",
          "type": "bytes32"
        }
      ],
      "name": "addEntity",
      "outputs": [],
      "stateMutability": "nonpayable",
      "type": "function"
    },
    {
      "inputs": [
        {
          "internalType": "string",
          "name": "productName",
          "type": "string"
        },
        {
          "internalType": "bytes32",
          "name": "_currLocation",
          "type": "bytes32"
        },
        {
          "internalType": "uint256",
          "name": "quantity",
          "type": "uint256"
        }
      ],
      "name": "addProduct",
      "outputs": [],
      "stateMutability": "nonpayable",
      "type": "function"
    },
    {
      "inputs": [
        {
          "internalType": "uint256",
          "name": "productId",
          "type": "uint256"
        },
        {
          "internalType": "bytes32",
          "name": "origin",
          "type": "bytes32"
        },
        {
          "internalType": "bytes32",
          "name": "destination",
          "type": "bytes32"
        },
        {
          "internalType": "uint256",
          "name": "dateOfDeparture",
          "type": "uint256"
        },
        {
          "internalType": "uint256",
          "name": "expectedArrivalDate",
          "type": "uint256"
        },
        {
          "internalType": "enum ShippingStatus",
          "name": "shippingStatus",
          "type": "uint8"
        }
      ],
      "name": "addShipment",
      "outputs": [],
      "stateMutability": "nonpayable",
      "type": "function"
    },
    {
      "inputs": [
        {
          "internalType": "address",
          "name": "_account",
          "type": "address"
        },
        {
          "internalType": "bytes32",
          "name": "_role",
          "type": "bytes32"
        }
      ],
      "name": "addUser",
      "outputs": [],
      "stateMutability": "nonpayable",
      "type": "function"
    },
    {
      "inputs": [
        {
          "internalType": "uint256",
          "name": "productId",
          "type": "uint256"
        }
      ],
      "name": "getProductDetails",
      "outputs": [
        {
          "internalType": "uint256",
          "name": "_productId",
          "type": "uint256"
        },
        {
          "internalType": "string",
          "name": "productName",
          "type": "string"
        },
        {
          "internalType": "bytes32",
          "name": "currentLocation",
          "type": "bytes32"
        },
        {
          "internalType": "uint256",
          "name": "quantity",
          "type": "uint256"
        },
        {
          "internalType": "bytes32",
          "name": "origin",
          "type": "bytes32"
        },
        {
          "internalType": "bytes32",
          "name": "destination",
          "type": "bytes32"
        },
        {
          "internalType": "uint256",
          "name": "dateOfDeparture",
          "type": "uint256"
        },
        {
          "internalType": "uint256",
          "name": "expectedArrivalDate",
          "type": "uint256"
        },
        {
          "internalType": "enum ShippingStatus",
          "name": "shippingStatus",
          "type": "uint8"
        }
      ],
      "stateMutability": "view",
      "type": "function"
    },
    {
      "inputs": [
        {
          "internalType": "uint256",
          "name": "productId",
          "type": "uint256"
        }
      ],
      "name": "getProductDetailsSupplier",
      "outputs": [
        {
          "internalType": "string",
          "name": "productName",
          "type": "string"
        },
        {
          "internalType": "bytes32",
          "name": "currentLocation",
          "type": "bytes32"
        },
        {
          "internalType": "uint256",
          "name": "quantity",
          "type": "uint256"
        },
        {
          "internalType": "uint256",
          "name": "dateOfDeparture",
          "type": "uint256"
        },
        {
          "internalType": "uint256",
          "name": "expectedArrivalDate",
          "type": "uint256"
        }
      ],
      "stateMutability": "view",
      "type": "function"
    },
    {
      "inputs": [
        {
          "internalType": "address",
          "name": "_user",
          "type": "address"
        }
      ],
      "name": "getUserRole",
      "outputs": [
        {
          "internalType": "bytes32",
          "name": "",
          "type": "bytes32"
        }
      ],
      "stateMutability": "view",
      "type": "function"
    },
    {
      "inputs": [
        {
          "internalType": "address",
          "name": "_account",
          "type": "address"
        }
      ],
      "name": "removeEntity",
      "outputs": [],
      "stateMutability": "nonpayable",
      "type": "function"
    },
    {
      "inputs": [
        {
          "internalType": "uint256",
          "name": "productId",
          "type": "uint256"
        }
      ],
      "name": "removeProduct",
      "outputs": [],
      "stateMutability": "nonpayable",
      "type": "function"
    },
    {
      "inputs": [
        {
          "internalType": "address",
          "name": "_account",
          "type": "address"
        }
      ],
      "name": "removeUser",
      "outputs": [],
      "stateMutability": "nonpayable",
      "type": "function"
    },
    {
      "inputs": [
        {
          "internalType": "uint256",
          "name": "productId",
          "type": "uint256"
        },
        {
          "internalType": "bytes32",
          "name": "_currLocation",
          "type": "bytes32"
        }
      ],
      "name": "updateCurrentLocation",
      "outputs": [],
      "stateMutability": "nonpayable",
      "type": "function"
    },
    {
      "inputs": [
        {
          "internalType": "uint256",
          "name": "productId",
          "type": "uint256"
        },
        {
          "internalType": "string",
          "name": "productName",
          "type": "string"
        },
        {
          "internalType": "bytes32",
          "name": "_currLocation",
          "type": "bytes32"
        },
        {
          "internalType": "uint256",
          "name": "quantity",
          "type": "uint256"
        }
      ],
      "name": "updateProduct",
      "outputs": [],
      "stateMutability": "nonpayable",
      "type": "function"
    },
    {
      "inputs": [
        {
          "internalType": "uint256",
          "name": "transferId",
          "type": "uint256"
        },
        {
          "internalType": "bytes32",
          "name": "origin",
          "type": "bytes32"
        },
        {
          "internalType": "bytes32",
          "name": "destination",
          "type": "bytes32"
        },
        {
          "internalType": "uint256",
          "name": "dateOfDeparture",
          "type": "uint256"
        },
        {
          "internalType": "uint256",
          "name": "expectedArrivalDate",
          "type": "uint256"
        },
        {
          "internalType": "enum ShippingStatus",
          "name": "shippingStatus",
          "type": "uint8"
        }
      ],
      "name": "updateShipment",
      "outputs": [],
      "stateMutability": "nonpayable",
      "type": "function"
    }
  ],
  "bytecode": "0x60806040523480156200001157600080fd5b50600080819055506000600181905550620000906040518060400160405280600b81526020017f46726f7a656e20426565660000000000000000000000000000000000000000008152506040516020016200006c9062000d03565b6040516020818303038152906040528051906020012060646200093d60201b60201c565b620000ff6040518060400160405280600e81526020017f46726f7a656e20436869636b656e000000000000000000000000000000000000815250604051602001620000db9062000d03565b6040516020818303038152906040528051906020012060c86200093d60201b60201c565b6200016e6040518060400160405280600b81526020017f46726f7a656e20506561730000000000000000000000000000000000000000008152506040516020016200014a9062000d6a565b6040516020818303038152906040528051906020012060966200093d60201b60201c565b620001dd6040518060400160405280600b81526020017f46726f7a656e20436f726e000000000000000000000000000000000000000000815250604051602001620001b99062000d6a565b6040516020818303038152906040528051906020012060786200093d60201b60201c565b6200024c6040518060400160405280600e81526020017f46726f7a656e205370696e616368000000000000000000000000000000000000815250604051602001620002289062000d6a565b6040516020818303038152906040528051906020012060826200093d60201b60201c565b620002bb6040518060400160405280600e81526020017f46726f7a656e20436172726f7473000000000000000000000000000000000000815250604051602001620002979062000dd1565b60405160208183030381529060405280519060200120608c6200093d60201b60201c565b6200032a6040518060400160405280600f81526020017f46726f7a656e2042726f63636f6c690000000000000000000000000000000000815250604051602001620003069062000dd1565b60405160208183030381529060405280519060200120606e6200093d60201b60201c565b620003996040518060400160405280600d81526020017f46726f7a656e20536872696d7000000000000000000000000000000000000000815250604051602001620003759062000e38565b60405160208183030381529060405280519060200120605a6200093d60201b60201c565b620004086040518060400160405280600b81526020017f46726f7a656e2046697368000000000000000000000000000000000000000000815250604051602001620003e49062000e38565b6040516020818303038152906040528051906020012060506200093d60201b60201c565b620004776040518060400160405280601381526020017f46726f7a656e2053747261776265727269657300000000000000000000000000815250604051602001620004539062000e9f565b6040516020818303038152906040528051906020012060466200093d60201b60201c565b620004eb60006040516020016200048e9062000d03565b60405160208183030381529060405280519060200120604051602001620004b59062000d6a565b60405160208183030381529060405280519060200120426201518042620004dd919062000eef565b600062000a5c60201b60201c565b6200055f6001604051602001620005029062000d03565b60405160208183030381529060405280519060200120604051602001620005299062000d6a565b6040516020818303038152906040528051906020012042620151804262000551919062000eef565b600062000a5c60201b60201c565b620005d36002604051602001620005769062000d03565b604051602081830303815290604052805190602001206040516020016200059d9062000d6a565b60405160208183030381529060405280519060200120426202a30042620005c5919062000eef565b600062000a5c60201b60201c565b620006476003604051602001620005ea9062000d03565b60405160208183030381529060405280519060200120604051602001620006119062000dd1565b60405160208183030381529060405280519060200120426202a3004262000639919062000eef565b600062000a5c60201b60201c565b620006bb60046040516020016200065e9062000d03565b60405160208183030381529060405280519060200120604051602001620006859062000dd1565b60405160208183030381529060405280519060200120426203f48042620006ad919062000eef565b600062000a5c60201b60201c565b6200072f6005604051602001620006d29062000d03565b60405160208183030381529060405280519060200120604051602001620006f99062000e38565b60405160208183030381529060405280519060200120426203f4804262000721919062000eef565b600062000a5c60201b60201c565b620007a36006604051602001620007469062000d03565b604051602081830303815290604052805190602001206040516020016200076d9062000e38565b6040516020818303038152906040528051906020012042620546004262000795919062000eef565b600062000a5c60201b60201c565b620008176007604051602001620007ba9062000d03565b60405160208183030381529060405280519060200120604051602001620007e19062000e38565b6040516020818303038152906040528051906020012042620546004262000809919062000eef565b600062000a5c60201b60201c565b6200088b60086040516020016200082e9062000d03565b60405160208183030381529060405280519060200120604051602001620008559062000e9f565b604051602081830303815290604052805190602001204262069780426200087d919062000eef565b600062000a5c60201b60201c565b620008ff6009604051602001620008a29062000d03565b60405160208183030381529060405280519060200120604051602001620008c99062000e9f565b60405160208183030381529060405280519060200120426206978042620008f1919062000eef565b600062000a5c60201b60201c565b6200093733604051602001620009159062000f7a565b6040516020818303038152906040528051906020012062000b9660201b60201c565b6200154e565b6040518060600160405280848152602001838152602001828152506003600080548152602001908152602001600020600082015181600001908162000983919062001201565b5060208201518160010155604082015181600201559050506007600080548152602001908152602001600020829080600181540180825580915050600190039060005260206000200160009091909190915055600260005490806001815401808255809150506001900390600052602060002001600090919091909150557fdf3cf795fef72ded8a1f6fc4f9cb53e9624fd25f52f2023655a423718a3c28d583838360405162000a3693929190620013a3565b60405180910390a160008081548092919062000a5290620013e7565b9190505550505050565b6040518060e00160405280600154815260200187815260200186815260200185815260200184815260200183815260200182600281111562000aa35762000aa262001434565b5b815250600460006001548152602001908152602001600020600082015181600001556020820151816001015560408201518160020155606082015181600301556080820151816004015560a0820151816005015560c08201518160060160006101000a81548160ff0219169083600281111562000b255762000b2462001434565b5b02179055509050507f6f704d63f7132531a5c7f7ad4eeacacd07134844868bc12af38dbc5c8a80d33660015487878787878760405162000b6c9796959493929190620014b4565b60405180910390a16001600081548092919062000b8990620013e7565b9190505550505050505050565b60405180604001604052808373ffffffffffffffffffffffffffffffffffffffff16815260200182815250600560008473ffffffffffffffffffffffffffffffffffffffff1673ffffffffffffffffffffffffffffffffffffffff16815260200190815260200160002060008201518160000160006101000a81548173ffffffffffffffffffffffffffffffffffffffff021916908373ffffffffffffffffffffffffffffffffffffffff160217905550602082015181600101559050508173ffffffffffffffffffffffffffffffffffffffff167f8101e76b70bce4a3ed65168ee7fee5915c9b373d754943ce38cb6ded4e6137c48260405162000c9c919062001531565b60405180910390a25050565b600081905092915050565b7f50726f6475636572000000000000000000000000000000000000000000000000600082015250565b600062000ceb60088362000ca8565b915062000cf88262000cb3565b600882019050919050565b600062000d108262000cdc565b9150819050919050565b7f5368697070696e6720436f6d70616e7900000000000000000000000000000000600082015250565b600062000d5260108362000ca8565b915062000d5f8262000d1a565b601082019050919050565b600062000d778262000d43565b9150819050919050565b7f57617265686f7573650000000000000000000000000000000000000000000000600082015250565b600062000db960098362000ca8565b915062000dc68262000d81565b600982019050919050565b600062000dde8262000daa565b9150819050919050565b7f5061636b6167696e6720436f6d70616e79000000000000000000000000000000600082015250565b600062000e2060118362000ca8565b915062000e2d8262000de8565b601182019050919050565b600062000e458262000e11565b9150819050919050565b7f446973747269627574696f6e20436f6d70616e79000000000000000000000000600082015250565b600062000e8760148362000ca8565b915062000e948262000e4f565b601482019050919050565b600062000eac8262000e78565b9150819050919050565b6000819050919050565b7f4e487b7100000000000000000000000000000000000000000000000000000000600052601160045260246000fd5b600062000efc8262000eb6565b915062000f098362000eb6565b925082820190508082111562000f245762000f2362000ec0565b5b92915050565b7f41646d696e6973747261746f7200000000000000000000000000000000000000600082015250565b600062000f62600d8362000ca8565b915062000f6f8262000f2a565b600d82019050919050565b600062000f878262000f53565b9150819050919050565b600081519050919050565b7f4e487b7100000000000000000000000000000000000000000000000000000000600052604160045260246000fd5b7f4e487b7100000000000000000000000000000000000000000000000000000000600052602260045260246000fd5b600060028204905060018216806200101357607f821691505b60208210810362001029576200102862000fcb565b5b50919050565b60008190508160005260206000209050919050565b60006020601f8301049050919050565b600082821b905092915050565b600060088302620010937fffffffffffffffffffffffffffffffffffffffffffffffffffffffffffffffff8262001054565b6200109f868362001054565b95508019841693508086168417925050509392505050565b6000819050919050565b6000620010e2620010dc620010d68462000eb6565b620010b7565b62000eb6565b9050919050565b6000819050919050565b620010fe83620010c1565b620011166200110d82620010e9565b84845462001061565b825550505050565b600090565b6200112d6200111e565b6200113a818484620010f3565b505050565b5b8181101562001162576200115660008262001123565b60018101905062001140565b5050565b601f821115620011b1576200117b816200102f565b620011868462001044565b8101602085101562001196578190505b620011ae620011a58562001044565b8301826200113f565b50505b505050565b600082821c905092915050565b6000620011d660001984600802620011b6565b1980831691505092915050565b6000620011f18383620011c3565b9150826002028217905092915050565b6200120c8262000f91565b67ffffffffffffffff81111562001228576200122762000f9c565b5b62001234825462000ffa565b6200124182828562001166565b600060209050601f83116001811462001279576000841562001264578287015190505b620012708582620011e3565b865550620012e0565b601f19841662001289866200102f565b60005b82811015620012b3578489015182556001820191506020850194506020810190506200128c565b86831015620012d35784890151620012cf601f891682620011c3565b8355505b6001600288020188555050505b505050505050565b600082825260208201905092915050565b60005b8381101562001319578082015181840152602081019050620012fc565b60008484015250505050565b6000601f19601f8301169050919050565b6000620013438262000f91565b6200134f8185620012e8565b935062001361818560208601620012f9565b6200136c8162001325565b840191505092915050565b6000819050919050565b6200138c8162001377565b82525050565b6200139d8162000eb6565b82525050565b60006060820190508181036000830152620013bf818662001336565b9050620013d0602083018562001381565b620013df604083018462001392565b949350505050565b6000620013f48262000eb6565b91507fffffffffffffffffffffffffffffffffffffffffffffffffffffffffffffffff820362001429576200142862000ec0565b5b600182019050919050565b7f4e487b7100000000000000000000000000000000000000000000000000000000600052602160045260246000fd5b6003811062001477576200147662001434565b5b50565b60008190506200148a8262001463565b919050565b60006200149c826200147a565b9050919050565b620014ae816200148f565b82525050565b600060e082019050620014cb600083018a62001392565b620014da602083018962001392565b620014e9604083018862001381565b620014f8606083018762001381565b62001507608083018662001392565b6200151660a083018562001392565b6200152560c0830184620014a3565b98975050505050505050565b600060208201905062001548600083018462001381565b92915050565b613533806200155e6000396000f3fe608060405234801561001057600080fd5b50600436106100cf5760003560e01c80637a491b631161008c578063b604b4a111610066578063b604b4a114610200578063dd1829961461021c578063e87b172114610238578063f8cdbc6e14610254576100cf565b80637a491b63146101ac57806398575188146101c8578063b5a3bfe2146101e4576100cf565b806327820851146100d457806329951b1f1461010457806359abc346146101205780635ee95cae1461013c57806364f42a99146101585780636813b53b14610174575b600080fd5b6100ee60048036038101906100e991906122cb565b610288565b6040516100fb9190612311565b60405180910390f35b61011e6004803603810190610119919061238e565b6102d4565b005b61013a60048036038101906101359190612514565b6105a8565b005b61015660048036038101906101519190612583565b610781565b005b610172600480360381019061016d91906125b0565b610b14565b005b61018e60048036038101906101899190612583565b610bcc565b6040516101a3999897969594939291906126f5565b60405180910390f35b6101c660048036038101906101c19190612789565b610fcf565b005b6101e260048036038101906101dd91906122cb565b6111d7565b005b6101fe60048036038101906101f9919061281d565b611338565b005b61021a6004803603810190610215919061281d565b611546565b005b610236600480360381019061023191906122cb565b6116eb565b005b610252600480360381019061024d91906128aa565b61185c565b005b61026e60048036038101906102699190612583565b611a03565b60405161027f95949392919061292d565b60405180910390f35b6000600560008373ffffffffffffffffffffffffffffffffffffffff1673ffffffffffffffffffffffffffffffffffffffff168152602001908152602001600020600101549050919050565b6040516020016102e3906129de565b60405160208183030381529060405280519060200120600560003373ffffffffffffffffffffffffffffffffffffffff1673ffffffffffffffffffffffffffffffffffffffff1681526020019081526020016000206001015414806103ad575060405160200161035290612a3f565b60405160208183030381529060405280519060200120600560003373ffffffffffffffffffffffffffffffffffffffff1673ffffffffffffffffffffffffffffffffffffffff16815260200190815260200160002060010154145b8061041d57506040516020016103c290612aa0565b60405160208183030381529060405280519060200120600560003373ffffffffffffffffffffffffffffffffffffffff1673ffffffffffffffffffffffffffffffffffffffff16815260200190815260200160002060010154145b8061048d575060405160200161043290612b01565b60405160208183030381529060405280519060200120600560003373ffffffffffffffffffffffffffffffffffffffff1673ffffffffffffffffffffffffffffffffffffffff16815260200190815260200160002060010154145b6104cc576040517f08c379a00000000000000000000000000000000000000000000000000000000081526004016104c390612b62565b60405180910390fd5b6000548210610510576040517f08c379a000000000000000000000000000000000000000000000000000000000815260040161050790612bce565b60405180910390fd5b6000600360008481526020019081526020016000209050818160010181905550600760008481526020019081526020016000208290806001815401808255809150506001900390600052602060002001600090919091909150557f8bfc10da9d5884851b0ac0f5651b963b82e9a890ba39b241ee6db8744beb2aa7838360405161059b929190612bee565b60405180910390a1505050565b6040516020016105b7906129de565b6040516020818303038152906040528051906020012080600560003373ffffffffffffffffffffffffffffffffffffffff1673ffffffffffffffffffffffffffffffffffffffff1681526020019081526020016000206001015414610651576040517f08c379a000000000000000000000000000000000000000000000000000000000815260040161064890612b62565b60405180910390fd5b60405180606001604052808581526020018473ffffffffffffffffffffffffffffffffffffffff16815260200183815250600660008573ffffffffffffffffffffffffffffffffffffffff1673ffffffffffffffffffffffffffffffffffffffff16815260200190815260200160002060008201518160000190816106d69190612e23565b5060208201518160010160006101000a81548173ffffffffffffffffffffffffffffffffffffffff021916908373ffffffffffffffffffffffffffffffffffffffff160217905550604082015181600201559050508273ffffffffffffffffffffffffffffffffffffffff167f65ee1e445c13d20220d77d85d1a74294329be229677b2eaa8e19591f967b89a08584604051610773929190612ef5565b60405180910390a250505050565b604051602001610790906129de565b60405160208183030381529060405280519060200120600560003373ffffffffffffffffffffffffffffffffffffffff1673ffffffffffffffffffffffffffffffffffffffff16815260200190815260200160002060010154148061085a57506040516020016107ff90612a3f565b60405160208183030381529060405280519060200120600560003373ffffffffffffffffffffffffffffffffffffffff1673ffffffffffffffffffffffffffffffffffffffff16815260200190815260200160002060010154145b806108ca575060405160200161086f90612aa0565b60405160208183030381529060405280519060200120600560003373ffffffffffffffffffffffffffffffffffffffff1673ffffffffffffffffffffffffffffffffffffffff16815260200190815260200160002060010154145b8061093a57506040516020016108df90612b01565b60405160208183030381529060405280519060200120600560003373ffffffffffffffffffffffffffffffffffffffff1673ffffffffffffffffffffffffffffffffffffffff16815260200190815260200160002060010154145b610979576040517f08c379a000000000000000000000000000000000000000000000000000000000815260040161097090612b62565b60405180910390fd5b60005481106109bd576040517f08c379a00000000000000000000000000000000000000000000000000000000081526004016109b490612f71565b60405180910390fd5b6000805b600280549050811015610a0e5782600282815481106109e3576109e2612f91565b5b9060005260206000200154036109fb57809150610a0e565b8080610a0690612fef565b9150506109c1565b506001600280549050610a219190613037565b811015610a7b5760026001600280549050610a3c9190613037565b81548110610a4d57610a4c612f91565b5b906000526020600020015460028281548110610a6c57610a6b612f91565b5b90600052602060002001819055505b6002805480610a8d57610a8c61306b565b5b600190038181906000526020600020016000905590556003600083815260200190815260200160002060008082016000610ac791906121a7565b6001820160009055600282016000905550507f07015631cff457b5b13492c2045e70c6305a0a4aa773e432e79abbe2cf52c1eb82604051610b08919061309a565b60405180910390a15050565b604051602001610b23906129de565b6040516020818303038152906040528051906020012080600560003373ffffffffffffffffffffffffffffffffffffffff1673ffffffffffffffffffffffffffffffffffffffff1681526020019081526020016000206001015414610bbd576040517f08c379a0000000000000000000000000000000000000000000000000000000008152600401610bb490612b62565b60405180910390fd5b610bc78383611d2b565b505050565b600060606000806000806000806000896000548110610c20576040517f08c379a0000000000000000000000000000000000000000000000000000000008152600401610c1790613101565b60405180910390fd5b604051602001610c2f90612aa0565b60405160208183030381529060405280519060200120600560003373ffffffffffffffffffffffffffffffffffffffff1673ffffffffffffffffffffffffffffffffffffffff16815260200190815260200160002060010154148015610dde5750604051602001610c9f9061316d565b6040516020818303038152906040528051906020012060036000838152602001908152602001600020600101541480610d115750604051602001610ce2906131ce565b604051602081830303815290604052805190602001206003600083815260200190815260200160002060010154145b80610d555750604051602001610d269061322f565b604051602081830303815290604052805190602001206003600083815260200190815260200160002060010154145b80610d995750604051602001610d6a90613290565b604051602081830303815290604052805190602001206003600083815260200190815260200160002060010154145b80610ddd5750604051602001610dae906132f1565b604051602081830303815290604052805190602001206003600083815260200190815260200160002060010154145b5b80610e4e5750604051602001610df390612b01565b60405160208183030381529060405280519060200120600560003373ffffffffffffffffffffffffffffffffffffffff1673ffffffffffffffffffffffffffffffffffffffff16815260200190815260200160002060010154145b610e8d576040517f08c379a0000000000000000000000000000000000000000000000000000000008152600401610e8490612b62565b60405180910390fd5b6000548b10610ed1576040517f08c379a0000000000000000000000000000000000000000000000000000000008152600401610ec890612bce565b60405180910390fd5b6000600360008d815260200190815260200160002090506000610ef38d611e3b565b9050806020015182600001836001015484600201548460400151856060015186608001518760a001518860c00151878054610f2d90612c46565b80601f0160208091040260200160405190810160405280929190818152602001828054610f5990612c46565b8015610fa65780601f10610f7b57610100808354040283529160200191610fa6565b820191906000526020600020905b815481529060010190602001808311610f8957829003601f168201915b505050505097509b509b509b509b509b509b509b509b509b505050509193959799909294969850565b604051602001610fde906129de565b60405160208183030381529060405280519060200120600560003373ffffffffffffffffffffffffffffffffffffffff1673ffffffffffffffffffffffffffffffffffffffff1681526020019081526020016000206001015414806110a8575060405160200161104d90612a3f565b60405160208183030381529060405280519060200120600560003373ffffffffffffffffffffffffffffffffffffffff1673ffffffffffffffffffffffffffffffffffffffff16815260200190815260200160002060010154145b8061111857506040516020016110bd90612aa0565b60405160208183030381529060405280519060200120600560003373ffffffffffffffffffffffffffffffffffffffff1673ffffffffffffffffffffffffffffffffffffffff16815260200190815260200160002060010154145b80611188575060405160200161112d90612b01565b60405160208183030381529060405280519060200120600560003373ffffffffffffffffffffffffffffffffffffffff1673ffffffffffffffffffffffffffffffffffffffff16815260200190815260200160002060010154145b6111c7576040517f08c379a00000000000000000000000000000000000000000000000000000000081526004016111be90612b62565b60405180910390fd5b6111d2838383611f5e565b505050565b6040516020016111e6906129de565b6040516020818303038152906040528051906020012080600560003373ffffffffffffffffffffffffffffffffffffffff1673ffffffffffffffffffffffffffffffffffffffff1681526020019081526020016000206001015414611280576040517f08c379a000000000000000000000000000000000000000000000000000000000815260040161127790612b62565b60405180910390fd5b600560008373ffffffffffffffffffffffffffffffffffffffff1673ffffffffffffffffffffffffffffffffffffffff168152602001908152602001600020600080820160006101000a81549073ffffffffffffffffffffffffffffffffffffffff0219169055600182016000905550508173ffffffffffffffffffffffffffffffffffffffff167fe9dce8c992623ce791725b21e857e33248d1f190a25b5168313420eebdaae99d60405160405180910390a25050565b604051602001611347906129de565b60405160208183030381529060405280519060200120600560003373ffffffffffffffffffffffffffffffffffffffff1673ffffffffffffffffffffffffffffffffffffffff16815260200190815260200160002060010154148061141157506040516020016113b690612a3f565b60405160208183030381529060405280519060200120600560003373ffffffffffffffffffffffffffffffffffffffff1673ffffffffffffffffffffffffffffffffffffffff16815260200190815260200160002060010154145b80611481575060405160200161142690612aa0565b60405160208183030381529060405280519060200120600560003373ffffffffffffffffffffffffffffffffffffffff1673ffffffffffffffffffffffffffffffffffffffff16815260200190815260200160002060010154145b806114f1575060405160200161149690612b01565b60405160208183030381529060405280519060200120600560003373ffffffffffffffffffffffffffffffffffffffff1673ffffffffffffffffffffffffffffffffffffffff16815260200190815260200160002060010154145b611530576040517f08c379a000000000000000000000000000000000000000000000000000000000815260040161152790612b62565b60405180910390fd5b61153e868686868686612077565b505050505050565b604051602001611555906129de565b6040516020818303038152906040528051906020012080600560003373ffffffffffffffffffffffffffffffffffffffff1673ffffffffffffffffffffffffffffffffffffffff16815260200190815260200160002060010154146115ef576040517f08c379a00000000000000000000000000000000000000000000000000000000081526004016115e690612b62565b60405180910390fd5b6001548710611633576040517f08c379a000000000000000000000000000000000000000000000000000000000815260040161162a90613352565b60405180910390fd5b6000600460008981526020019081526020016000209050868160020181905550858160030181905550848160040181905550838160050181905550828160060160006101000a81548160ff021916908360028111156116955761169461267e565b5b02179055507f07e47e2ba4fdbe290bd8b4f6263d8e224b43325f00f8cc9093b53aee5818710a88826001015489898989896040516116d99796959493929190613372565b60405180910390a15050505050505050565b6040516020016116fa906129de565b6040516020818303038152906040528051906020012080600560003373ffffffffffffffffffffffffffffffffffffffff1673ffffffffffffffffffffffffffffffffffffffff1681526020019081526020016000206001015414611794576040517f08c379a000000000000000000000000000000000000000000000000000000000815260040161178b90612b62565b60405180910390fd5b600660008373ffffffffffffffffffffffffffffffffffffffff1673ffffffffffffffffffffffffffffffffffffffff168152602001908152602001600020600080820160006117e491906121a7565b6001820160006101000a81549073ffffffffffffffffffffffffffffffffffffffff0219169055600282016000905550508173ffffffffffffffffffffffffffffffffffffffff167f66baa8598dad476a7a23c2c39a3c9ea353a313b8050f5f2ff7df3121abe1f98360405160405180910390a25050565b60405160200161186b906129de565b6040516020818303038152906040528051906020012080600560003373ffffffffffffffffffffffffffffffffffffffff1673ffffffffffffffffffffffffffffffffffffffff1681526020019081526020016000206001015414611905576040517f08c379a00000000000000000000000000000000000000000000000000000000081526004016118fc90612b62565b60405180910390fd5b6000548510611949576040517f08c379a000000000000000000000000000000000000000000000000000000000815260040161194090612bce565b60405180910390fd5b6000600360008781526020019081526020016000209050848160000190816119719190612e23565b50838160010181905550828160020181905550600760008781526020019081526020016000208490806001815401808255809150506001900390600052602060002001600090919091909150557f53f39b940d54ab8bbf561ed3d0a52d969e773a5ea142a57506c810ddd4947a0f868686866040516119f394939291906133e1565b60405180910390a1505050505050565b6060600080600080856000548110611a50576040517f08c379a0000000000000000000000000000000000000000000000000000000008152600401611a4790613101565b60405180910390fd5b604051602001611a5f90612a3f565b60405160208183030381529060405280519060200120600560003373ffffffffffffffffffffffffffffffffffffffff1673ffffffffffffffffffffffffffffffffffffffff16815260200190815260200160002060010154148015611bca5750604051602001611acf9061316d565b6040516020818303038152906040528051906020012060036000838152602001908152602001600020600101541480611b415750604051602001611b12906131ce565b604051602081830303815290604052805190602001206003600083815260200190815260200160002060010154145b80611b855750604051602001611b569061322f565b604051602081830303815290604052805190602001206003600083815260200190815260200160002060010154145b80611bc95750604051602001611b9a90613290565b604051602081830303815290604052805190602001206003600083815260200190815260200160002060010154145b5b611c09576040517f08c379a0000000000000000000000000000000000000000000000000000000008152600401611c0090612b62565b60405180910390fd5b6000548710611c4d576040517f08c379a0000000000000000000000000000000000000000000000000000000008152600401611c4490612bce565b60405180910390fd5b60006003600089815260200190815260200160002090506000611c6f89611e3b565b9050816000018260010154836002015483608001518460a00151848054611c9590612c46565b80601f0160208091040260200160405190810160405280929190818152602001828054611cc190612c46565b8015611d0e5780601f10611ce357610100808354040283529160200191611d0e565b820191906000526020600020905b815481529060010190602001808311611cf157829003601f168201915b505050505094509750975097509750975050505091939590929450565b60405180604001604052808373ffffffffffffffffffffffffffffffffffffffff16815260200182815250600560008473ffffffffffffffffffffffffffffffffffffffff1673ffffffffffffffffffffffffffffffffffffffff16815260200190815260200160002060008201518160000160006101000a81548173ffffffffffffffffffffffffffffffffffffffff021916908373ffffffffffffffffffffffffffffffffffffffff160217905550602082015181600101559050508173ffffffffffffffffffffffffffffffffffffffff167f8101e76b70bce4a3ed65168ee7fee5915c9b373d754943ce38cb6ded4e6137c482604051611e2f9190612311565b60405180910390a25050565b611e436121e7565b60005b600154811015611f1d5782600460008381526020019081526020016000206001015403611f0a57600460008281526020019081526020016000206040518060e00160405290816000820154815260200160018201548152602001600282015481526020016003820154815260200160048201548152602001600582015481526020016006820160009054906101000a900460ff166002811115611eec57611eeb61267e565b5b6002811115611efe57611efd61267e565b5b81525050915050611f59565b8080611f1590612fef565b915050611e46565b506040517f08c379a0000000000000000000000000000000000000000000000000000000008152600401611f509061349f565b60405180910390fd5b919050565b60405180606001604052808481526020018381526020018281525060036000805481526020019081526020016000206000820151816000019081611fa29190612e23565b5060208201518160010155604082015181600201559050506007600080548152602001908152602001600020829080600181540180825580915050600190039060005260206000200160009091909190915055600260005490806001815401808255809150506001900390600052602060002001600090919091909150557fdf3cf795fef72ded8a1f6fc4f9cb53e9624fd25f52f2023655a423718a3c28d5838383604051612053939291906134bf565b60405180910390a160008081548092919061206d90612fef565b9190505550505050565b6040518060e0016040528060015481526020018781526020018681526020018581526020018481526020018381526020018260028111156120bb576120ba61267e565b5b815250600460006001548152602001908152602001600020600082015181600001556020820151816001015560408201518160020155606082015181600301556080820151816004015560a0820151816005015560c08201518160060160006101000a81548160ff0219169083600281111561213a5761213961267e565b5b02179055509050507f6f704d63f7132531a5c7f7ad4eeacacd07134844868bc12af38dbc5c8a80d33660015487878787878760405161217f9796959493929190613372565b60405180910390a16001600081548092919061219a90612fef565b9190505550505050505050565b5080546121b390612c46565b6000825580601f106121c557506121e4565b601f0160209004906000526020600020908101906121e3919061223c565b5b50565b6040518060e00160405280600081526020016000815260200160008019168152602001600080191681526020016000815260200160008152602001600060028111156122365761223561267e565b5b81525090565b5b8082111561225557600081600090555060010161223d565b5090565b6000604051905090565b600080fd5b600080fd5b600073ffffffffffffffffffffffffffffffffffffffff82169050919050565b60006122988261226d565b9050919050565b6122a88161228d565b81146122b357600080fd5b50565b6000813590506122c58161229f565b92915050565b6000602082840312156122e1576122e0612263565b5b60006122ef848285016122b6565b91505092915050565b6000819050919050565b61230b816122f8565b82525050565b60006020820190506123266000830184612302565b92915050565b6000819050919050565b61233f8161232c565b811461234a57600080fd5b50565b60008135905061235c81612336565b92915050565b61236b816122f8565b811461237657600080fd5b50565b60008135905061238881612362565b92915050565b600080604083850312156123a5576123a4612263565b5b60006123b38582860161234d565b92505060206123c485828601612379565b9150509250929050565b600080fd5b600080fd5b6000601f19601f8301169050919050565b7f4e487b7100000000000000000000000000000000000000000000000000000000600052604160045260246000fd5b612421826123d8565b810181811067ffffffffffffffff821117156124405761243f6123e9565b5b80604052505050565b6000612453612259565b905061245f8282612418565b919050565b600067ffffffffffffffff82111561247f5761247e6123e9565b5b612488826123d8565b9050602081019050919050565b82818337600083830152505050565b60006124b76124b284612464565b612449565b9050828152602081018484840111156124d3576124d26123d3565b5b6124de848285612495565b509392505050565b600082601f8301126124fb576124fa6123ce565b5b813561250b8482602086016124a4565b91505092915050565b60008060006060848603121561252d5761252c612263565b5b600084013567ffffffffffffffff81111561254b5761254a612268565b5b612557868287016124e6565b9350506020612568868287016122b6565b925050604061257986828701612379565b9150509250925092565b60006020828403121561259957612598612263565b5b60006125a78482850161234d565b91505092915050565b600080604083850312156125c7576125c6612263565b5b60006125d5858286016122b6565b92505060206125e685828601612379565b9150509250929050565b6125f98161232c565b82525050565b600081519050919050565b600082825260208201905092915050565b60005b8381101561263957808201518184015260208101905061261e565b60008484015250505050565b6000612650826125ff565b61265a818561260a565b935061266a81856020860161261b565b612673816123d8565b840191505092915050565b7f4e487b7100000000000000000000000000000000000000000000000000000000600052602160045260246000fd5b600381106126be576126bd61267e565b5b50565b60008190506126cf826126ad565b919050565b60006126df826126c1565b9050919050565b6126ef816126d4565b82525050565b60006101208201905061270b600083018c6125f0565b818103602083015261271d818b612645565b905061272c604083018a612302565b61273960608301896125f0565b6127466080830188612302565b61275360a0830187612302565b61276060c08301866125f0565b61276d60e08301856125f0565b61277b6101008301846126e6565b9a9950505050505050505050565b6000806000606084860312156127a2576127a1612263565b5b600084013567ffffffffffffffff8111156127c0576127bf612268565b5b6127cc868287016124e6565b93505060206127dd86828701612379565b92505060406127ee8682870161234d565b9150509250925092565b6003811061280557600080fd5b50565b600081359050612817816127f8565b92915050565b60008060008060008060c0878903121561283a57612839612263565b5b600061284889828a0161234d565b965050602061285989828a01612379565b955050604061286a89828a01612379565b945050606061287b89828a0161234d565b935050608061288c89828a0161234d565b92505060a061289d89828a01612808565b9150509295509295509295565b600080600080608085870312156128c4576128c3612263565b5b60006128d28782880161234d565b945050602085013567ffffffffffffffff8111156128f3576128f2612268565b5b6128ff878288016124e6565b935050604061291087828801612379565b92505060606129218782880161234d565b91505092959194509250565b600060a08201905081810360008301526129478188612645565b90506129566020830187612302565b61296360408301866125f0565b61297060608301856125f0565b61297d60808301846125f0565b9695505050505050565b600081905092915050565b7f41646d696e6973747261746f7200000000000000000000000000000000000000600082015250565b60006129c8600d83612987565b91506129d382612992565b600d82019050919050565b60006129e9826129bb565b9150819050919050565b7f537570706c696572000000000000000000000000000000000000000000000000600082015250565b6000612a29600883612987565b9150612a34826129f3565b600882019050919050565b6000612a4a82612a1c565b9150819050919050565b7f4469737472696275746f72000000000000000000000000000000000000000000600082015250565b6000612a8a600b83612987565b9150612a9582612a54565b600b82019050919050565b6000612aab82612a7d565b9150819050919050565b7f41756469746f7200000000000000000000000000000000000000000000000000600082015250565b6000612aeb600783612987565b9150612af682612ab5565b600782019050919050565b6000612b0c82612ade565b9150819050919050565b7f4e6f7420417574686f72697a6564210000000000000000000000000000000000600082015250565b6000612b4c600f8361260a565b9150612b5782612b16565b602082019050919050565b60006020820190508181036000830152612b7b81612b3f565b9050919050565b7f50726f6475637420646f6573206e6f7420657869737400000000000000000000600082015250565b6000612bb860168361260a565b9150612bc382612b82565b602082019050919050565b60006020820190508181036000830152612be781612bab565b9050919050565b6000604082019050612c0360008301856125f0565b612c106020830184612302565b9392505050565b7f4e487b7100000000000000000000000000000000000000000000000000000000600052602260045260246000fd5b60006002820490506001821680612c5e57607f821691505b602082108103612c7157612c70612c17565b5b50919050565b60008190508160005260206000209050919050565b60006020601f8301049050919050565b600082821b905092915050565b600060088302612cd97fffffffffffffffffffffffffffffffffffffffffffffffffffffffffffffffff82612c9c565b612ce38683612c9c565b95508019841693508086168417925050509392505050565b6000819050919050565b6000612d20612d1b612d168461232c565b612cfb565b61232c565b9050919050565b6000819050919050565b612d3a83612d05565b612d4e612d4682612d27565b848454612ca9565b825550505050565b600090565b612d63612d56565b612d6e818484612d31565b505050565b5b81811015612d9257612d87600082612d5b565b600181019050612d74565b5050565b601f821115612dd757612da881612c77565b612db184612c8c565b81016020851015612dc0578190505b612dd4612dcc85612c8c565b830182612d73565b50505b505050565b600082821c905092915050565b6000612dfa60001984600802612ddc565b1980831691505092915050565b6000612e138383612de9565b9150826002028217905092915050565b612e2c826125ff565b67ffffffffffffffff811115612e4557612e446123e9565b5b612e4f8254612c46565b612e5a828285612d96565b600060209050601f831160018114612e8d5760008415612e7b578287015190505b612e858582612e07565b865550612eed565b601f198416612e9b86612c77565b60005b82811015612ec357848901518255600182019150602085019450602081019050612e9e565b86831015612ee05784890151612edc601f891682612de9565b8355505b6001600288020188555050505b505050505050565b60006040820190508181036000830152612f0f8185612645565b9050612f1e6020830184612302565b9392505050565b7f4f7574206f6620626f756e647300000000000000000000000000000000000000600082015250565b6000612f5b600d8361260a565b9150612f6682612f25565b602082019050919050565b60006020820190508181036000830152612f8a81612f4e565b9050919050565b7f4e487b7100000000000000000000000000000000000000000000000000000000600052603260045260246000fd5b7f4e487b7100000000000000000000000000000000000000000000000000000000600052601160045260246000fd5b6000612ffa8261232c565b91507fffffffffffffffffffffffffffffffffffffffffffffffffffffffffffffffff820361302c5761302b612fc0565b5b600182019050919050565b60006130428261232c565b915061304d8361232c565b925082820390508181111561306557613064612fc0565b5b92915050565b7f4e487b7100000000000000000000000000000000000000000000000000000000600052603160045260246000fd5b60006020820190506130af60008301846125f0565b92915050565b7f496e76616c69642070726f647563742049440000000000000000000000000000600082015250565b60006130eb60128361260a565b91506130f6826130b5565b602082019050919050565b6000602082019050818103600083015261311a816130de565b9050919050565b7f50726f6475636572000000000000000000000000000000000000000000000000600082015250565b6000613157600883612987565b915061316282613121565b600882019050919050565b60006131788261314a565b9150819050919050565b7f5368697070696e6720436f6d70616e7900000000000000000000000000000000600082015250565b60006131b8601083612987565b91506131c382613182565b601082019050919050565b60006131d9826131ab565b9150819050919050565b7f57617265686f7573650000000000000000000000000000000000000000000000600082015250565b6000613219600983612987565b9150613224826131e3565b600982019050919050565b600061323a8261320c565b9150819050919050565b7f5061636b6167696e6720436f6d70616e79000000000000000000000000000000600082015250565b600061327a601183612987565b915061328582613244565b601182019050919050565b600061329b8261326d565b9150819050919050565b7f446973747269627574696f6e20436f6d70616e79000000000000000000000000600082015250565b60006132db601483612987565b91506132e6826132a5565b601482019050919050565b60006132fc826132ce565b9150819050919050565b7f536869706d656e7420646f6573206e6f74206578697374000000000000000000600082015250565b600061333c60178361260a565b915061334782613306565b602082019050919050565b6000602082019050818103600083015261336b8161332f565b9050919050565b600060e082019050613387600083018a6125f0565b61339460208301896125f0565b6133a16040830188612302565b6133ae6060830187612302565b6133bb60808301866125f0565b6133c860a08301856125f0565b6133d560c08301846126e6565b98975050505050505050565b60006080820190506133f660008301876125f0565b81810360208301526134088186612645565b90506134176040830185612302565b61342460608301846125f0565b95945050505050565b7f4e6f20736869706d656e7420666f756e6420666f72207468652073706563696660008201527f6965642070726f64756374000000000000000000000000000000000000000000602082015250565b6000613489602b8361260a565b91506134948261342d565b604082019050919050565b600060208201905081810360008301526134b88161347c565b9050919050565b600060608201905081810360008301526134d98186612645565b90506134e86020830185612302565b6134f560408301846125f0565b94935050505056fea26469706673582212205655800fd1be3da501eaf2398a3839dad7e382d0d651f5cc0c6b60b7ea54d77064736f6c63430008130033",
  "linkReferences": {},
  "deployedLinkReferences": {}
}